:03000000021321C7
:0C132100787FE4F6D8FD75816302136844
:1014BB00C100012B6401290001540A044A40133373
:0D14CB0033045043480000044600000000B8
:0C152A00759D01E4F5BDF5BE75BC802286
:1014D900438901D2AFD2A9758CD8758AF053B7FD6B
:0414E90043B80222E0
:101485008F608B618A628963ED7006E560248080D8
:1014950004E56024C0FF12150FAB61AA62A96312AF
:1014A5000BF8FF601012150F74012563F563E43521
:0614B50062F56280E422F2
:1013FB00E53675F00A120BD6AFF0EF2430F52AE57F
:10140B003675F00A120BD6F53675F00A120BD6AFFD
:0C141B00F0EF2430F5287B50E4FD7F0149
:101427008F108B11ED7006E51024808004E51024E1
:0A143700C0FF12150FAF11021501DE
:1014ED007F3812150F7F0C12150F7F0612150F7F07
:0414FD000102150FC4
:0C151D007FC17E727D01DDFEDEFADFF68C
:01152900229F
:091542007FC27E54DEFEDFFA00D8
:01154B00227D
:0E150100D297D2968F80121542C296021542E2
:0E150F00C297D2968F80121542C296021542E4
:0A0F510053BC80AFBD753C008F3D1E
:100F5B00AC3CAD3DEC120B1CE4FBFA79A0784012D3
:100F6B0008F8E4FBFA79807843120A018F268E2564
:100F7B008D248C23E4FFFE7DA07C41AB26AA25A902
:100F8B0024A8231208F88F328E318D308C2FE4FF7A
:100F9B00FE7DC87C42AB32AA31A930A82F1208F8CB
:100FAB00120B558E4E8F4F7C007D0A120C23ED24B5
:100FBB0030F542AE4EAF4F7C007D0A120C238E4EA5
:100FCB008F4F7C007D0A120C23ED2430F540AE4E82
:100FDB00AF4F7C007D0A120C238E4E8F4F7C007D11
:100FEB000A120C23ED2430F537AE4EAF4F7C007D4B
:100FFB000A120C238E4E8F4F7C007D0A120C23EDB0
:10100B002430F535FBE4FD7F04121427AB37E4FDE8
:10101B007F051214277B2EE4FD7F06121427AB40AD
:10102B00E4FD7F07121427AB42E4FD7F080214276F
:10103B00755600755701D2A07536461213FB7B56B9
:10104B00E4FD7F021214277B3AE4FD7F0312142781
:10105B007BDFE4FD7F091214277B43E4FD7F0A123B
:10106B0014277B537D017F011214277B567D017F53
:10107B00021214277B3A7D017F03121427AB287DC4
:10108B00017F04121427AB2A7D017F051214277BE5
:10109B00DF7D017F061214277B437D017F0712142E
:1010AB0027D28CE53464014533701BC28CF533F5C4
:1010BB0034120F5B75BC88E5BC30E4FB53BC80AFCE
:1010CB00BD753C008F3DE4FFFE7D8C7C42AB32AAAC
:1010DB0031A930A82F120A9E5002D2A0E4FFFE7D48
:1010EB008C7C42AB32AA31A930A82F120A9E60B178
:0610FB0040AFC2A080AB73
:10127E007556007557027536631213FB7B56E4FDE7
:10128E007F021214277B3AE4FD7F031214277BDFC3
:10129E00E4FD7F091214277B43E4FD7F0A12142715
:1012AE007B537D017F011214277B567D017F021235
:1012BE0014277B3A7D017F03121427AB287D017F13
:1012CE0004121427AB2A7D017F051214277BDF7DC4
:1012DE00017F061214277B437D017F07121427D24C
:1012EE00A0D28CE53464014533700FF533F53475B7
:1012FE00BC88E5BC30E4FB120F51E4FFFE7DC67CDA
:10130E0042AB32AA31A930A82F120A9E60D140CF2B
:03131E00C2A02248
:1011C2007556007557037536321213FB7B56E4FDD4
:1011D2007F021214277B3AE4FD7F031214277BDF80
:1011E200E4FD7F091214277B43E4FD7F0A121427D2
:1011F2007B537D017F011214277B567D017F0212F2
:1012020014277B3A7D017F03121427AB287D017FCF
:1012120004121427AB2A7D017F051214277BDF7D80
:10122200017F061214277B437D017F07121427E5F5
:101232003464014533700FF533F53475BC88E5BC71
:1012420030E4FB120F51120D8AD3E52D9480E52C68
:10125200648094805004C2A0801AE52D2480FFE5AA
:101262002C34FFFE7C007D64120C117D80120C7800
:0C1272008E5E8F5F855E44855F4580B313
:10110100C2A01214D912152AC2961214ED758901C2
:1011110075380075390AAE38AF397C037DE8120C99
:1011210011E4C39FFFE49EFE74019400FDE494006A
:10113100FCE4FB7A01F9F81214418F5CAE38AF3947
:101141007C037DE8120C11E4C39FFFE49EFE740151
:101151009400FDE49400FCE4FB7A01F9F8121441D7
:10116100AF038F5D7414255DF55D855C8C855D8AAB
:10117100D28AD2AAD2A9D28CE4F55BF55AF559F5F7
:1011810058F543F52EF527F532F531F530F52FF504
:1011910021F522F529F541F53AF52CF52DAF2BEF87
:1011A1003395E0F5448F45F55E8F5FD2AF20B403F0
:1011B10012103B20B50312127E20B6F11211C2802B
:0111C100EC41
:100D8A00AC36EC120B21AB32AA31A930A82F1208CB
:100D9A0003120B558F27C3E527952EF543EF33959D
:100DAA00E0FE121536AD54ED3395E0FCD3EF9DEC21
:100DBA006480F8EE6480985012E4FFFEFDFCAB53A9
:100DCA00AA52A951A850120A9E700CE4F51BF51AF2
:100DDA00F519F518020E74AB5BAA5AA959A858C09E
:100DEA0000C001C002C003AC27EC120B21D003D013
:100DFA0002D001D0001208078F5B8E5A8D598C5889
:100E0A00E4FFFE7DFE7C42AB5BAA5AA959A85812A0
:100E1A000A9E600D400BE4F55BF55A7559FE75584C
:100E2A0042E4FFFEFD7CC3AB5BAA5AA959A858123B
:100E3A000A9E500AE4F55BF55AF5597558C3AC2B6E
:100E4A00EC120B21AB5BAA5AA959A8581208F88FC1
:100E5A001B8E1A8D198C18AB53AA52A951A850127D
:100E6A000A018F1B8E1A8D198C18AC27EC120B21D4
:100E7A008F178E168D158C14AC43EC120B21AB49CF
:100E8A00AA48A947A8461208F88F1F8E1E8D1D8CE6
:100E9A001CC004C005C006C007AC2BEC120B21A86D
:100EAA0004A905AA06AB07D007D006D005D00412BC
:100EBA000A018F1F8E1E8D1D8C1CAF1BAE1AAD1919
:100ECA00AC18AB17AA16A915A814120807AB1FAAC3
:100EDA001EA91DA81C120807AB4DAA4CA94BA84A6B
:100EEA001208F88F138E128D118C10E4FFFE7DFE0E
:100EFA007C42AB13AA12A911A810120A9E600D40D7
:100F0A000BE4F513F5127511FE751042E4FFFEFDB0
:100F1A007CC3AB13AA12A911A810120A9E500AE4A4
:100F2A00F513F512F5117510C3AF13AE12AD11AC6E
:100F3A0010120B558E2C8F2D85272E7480252DF59A
:060F4A002DE4352CF52C0E
:010F5000227E
:03000B000213AD30
:1013AD00C0E0C0D075D008855C8C855D8AC3E52B07
:1013BD006480F8E52964809850040529800F7541F3
:1013CD000175290075BC88753300753401E55764C6
:1013DD000345567014E5454544600CE545154570CB
:0E13ED00021544D2A08002C2A0D0D0D0E032BF
:10080000020BC1E86480F8E933E83360110460F05A
:10081000ED33EC337009E8FCE9FDEAFEEBFF22045E
:1008200060DED3EB9FEA9EE99DE8C2E78CF0C2F759
:1008300095F0400CE8CCF8E9CDF9EACEFAEBCFFB25
:10084000120B8C85D0F05804700320D5B3E80470E7
:10085000075002B2D5020BCB92D5EC0460F7E4CC82
:10086000C0E0C398F8603B94186008400DD0E0FBEE
:10087000020BA3E4FBFAC9FC8028E830E406E4C9D3
:10088000FBE4CAFCE830E305E4C9CACBFCE8540742
:100890006010F8C3E913F9EA13FAEB13FBEC13FC4D
:1008A000D8F130F52FC3E49CFCEF9BFFEE9AFEEDF0
:1008B00099FDD0E0FBEF4E4D4C701222DB03020B92
:1008C000C8EC2CFCEF33FFEE33FEED33FDED30E7EB
:1008D000EB020BA3EF2BFFEE3AFEED39FDD0E0FB70
:1008E00050130BBB0003020BCBED13FDEE13FEEF19
:0808F00013FFEC13FC020BA343
:1008F800EC4D6011E8497017ED33EC3304600DE4FA
:10090800FCFFFEFD22E933E8330470F8020BC11244
:100918000B8C58046009E4CC248150062850090245
:100928000BCB284003020BC8C0E0EB4A7044B980E7
:1009380006D0E0FB020BB7EF4E701CBD8008EBFF42
:10094800EAFEE9FD80EBE98DF0A4FEE5F00209E19D
:10095800E9CDF9EAFEEBFFEF89F0A4FCE5F0CE89DA
:10096800F0A42EFFE435F0CD89F0A42DFEE435F097
:100978008067EF4E7005BD80D780C3EF8BF0A4ACC5
:10098800F0EE8BF0A42CFCE435F0F8EF8AF0A42C00
:10099800E5F038FCE433CB8DF0A42CFCE5F03BF813
:1009A800EE8AF0A42CFCE5F038F8E433CF89F0A403
:1009B8002CFCE5F038CF3400CE89F0A42FFFE5F009
:1009C8003EFEE433C98DF0A42EFEE5F039CD8AF061
:1009D800A42FFFE5F03EFEE43DFD33D0E0FB5007D9
:1009E8000BBB000F020BCBEC2CFCEF33FFEE33FEFE
:0609F800ED33FD020BA32C
:1009FE00020BCBEC5D046005E859047003020BC1D9
:100A0E00120B8C580460F6EC4860F2EC7004FDFE9C
:100A1E00FF22C860DB2481C85009C39860025006CB
:100A2E00020BC89850CAF582E9294B4A7005AB8271
:100A3E00020BB775F0007C1A7880C3EF9BEE9AED2F
:100A4E0099400DC3EF9BFFEE9AFEED99FDE842F043
:100A5E00DC23ACF0D0E0FFD0E0FED0E0FDAB822096
:100A6E00E7101BEB60BAEC2CFCEF33FFEE33FEED20
:100A7E0033FD020BA3E803F830E705C0F075F00074
:100A8E00EF2FFFEE33FEED33FD40B830E7C280AA04
:100A9E0074F8CC6480CCC86480C8F58204604FC3FF
:100AAE00EB9FF5F0EA9E42F0E99D42F0E89C45F09E
:100ABE00603C501DE5825FFFE582D313CB5BCBF428
:100ACE002B5582FB50280ABA002409B90020088051
:100ADE001DE5825BFBE582D313CF5FCFF4C3132FEB
:100AEE005582FF50090EBE00050DBD00010CC3EB73
:100AFE009FF5F0EA9E42F0E99D42F0E89C45F060D9
:090B0E0007CC4820E701B3EC22FA
:100B170075F020800E75F010800575F0087D007E59
:100B2700007F003392D530D503120CAEEC33401062
:100B3700EF33FFEE33FEED33FDEC33FCD5F0ED2262
:0E0B4700E5F0247EA2D513CC92E7CDCEFF229E
:100B5500EDD2E7CD33EC3392D524814006E4FFFE98
:100B6500FDFC22FCE4CFCECDCC24E0501174FF80F7
:100B7500EDC3CC13CCCD13CDCE13CECF13CF047094
:070B8500F030D5DE020CAEDA
:100B8C00E9D2E7C933E833F892D5EDD2E7CD33ECAF
:070B9C0033FC5002B2D52228
:100BA300EC30E7100FBF000C0EBE00080DBD0004B3
:100BB3000BEB6014A2D5EB13FCED92E7FD2274FF5F
:100BC300FCFDFEFF22E480F8A2D574FF13FC7D80B8
:030BD300E480EFCC
:10132D00021101E493A3F8E493A34003F68001F2C4
:10133D0008DFF48029E493A3F85407240CC8C333C1
:10134D00C4540F4420C8834004F456800146F6DF90
:10135D00E4800B01020408102040809014BBE47E51
:10136D00019360BCA3FF543F30E509541FFEE49385
:10137D00A360010ECF54C025E060A840B8E493A34C
:10138D00FAE493A3F8E493A3C8C582C8CAC583CA77
:10139D00F0A3C8C582C8CAC583CADFE9DEE780BE2F
:0114D8000013
:100BD600C2D530F707B2D563F0FF05F030E70CB2A7
:100BE600D5F4048463F0FF05F080018430D502F467
:020BF6000422D7
:100BF800BB010689828A83E0225002E722BBFE02FB
:090C0800E32289828A83E493222D
:100C1100EF8DF0A4A8F0CF8CF0A428CE8DF0A42EF7
:020C2100FE22B1
:100C2300BC000BBE0029EF8DF084FFADF022E4CCB5
:100C3300F875F008EF2FFFEE33FEEC33FCEE9DEC7E
:100C4300984005FCEE9DFE0FD5F0E9E4CEFD22EDC4
:100C5300F8F5F0EE8420D21CFEADF075F008EF2F0E
:100C6300FFED33FD4007985006D5F0F222C398FDFF
:050C73000FD5F0EA229C
:100C7800C2D5EC30E709B2D5E4C39DFDE49CFCEE97
:100C880030E715B2D5E4C39FFFE49EFE120C23C3E0
:100C9800E49DFDE49CFC8003120C2330D507C3E4DB
:060CA8009FFFE49EFE2206
:10144100C2D5E830E70FB2D5E4C39BFBE49AFAE4D6
:1014510099F9E498F8EC30E717B2D5121477120C29
:10146100F8E4C39BFBE49AFAE499F9E498F8800361
:10147100120CF830D50DE4C39FFFE49EFEE49DFD00
:04148100E49CFC22C9
:0E0CAE00C3E49FFFE49EFEE49DFDE49CFC2257
:0C153600EE30E707C3E49FFFE49EFE22B6
:100CBC0075F008758200EF2FFFEE33FECD33CDCCEF
:100CCC0033CCC58233C5829BED9AEC99E582984072
:100CDC000CF582EE9BFEED9AFDEC99FC0FD5F0D64F
:100CEC00E4CEFBE4CDFAE4CCF9A88222B800C1B979
:100CFC000059BA002DEC8BF084CFCECDFCE5F0CBB7
:100D0C00F97818EF2FFFEE33FEED33FDEC33FCEBEF
:100D1C0033FB10D703994004EB99FB0FD8E5E4F9AA
:100D2C00FA227818EF2FFFEE33FEED33FDEC33FC97
:100D3C00C933C910D7059BE99A4007EC9BFCE99A8B
:100D4C00F90FD8E0E4C9FAE4CCFB2275F010EF2FD0
:100D5C00FFEE33FEED33FDCC33CCC833C810D707D0
:100D6C009BEC9AE899400AED9BFDEC9AFCE899F80B
:0E0D7C000FD5F0DAE4CDFBE4CCFAE4C8F9229E
:00000001FF
